{
  "_format": "hh-sol-artifact-1",
  "contractName": "Marketplace",
  "sourceName": "contracts/Marketplace.sol",
  "abi": [
    {
      "inputs": [],
      "stateMutability": "nonpayable",
      "type": "constructor"
    },
    {
      "inputs": [],
      "name": "EnforcedPause",
      "type": "error"
    },
    {
      "inputs": [],
      "name": "ExpectedPause",
      "type": "error"
    },
    {
      "inputs": [
        {
          "internalType": "address",
          "name": "owner",
          "type": "address"
        }
      ],
      "name": "OwnableInvalidOwner",
      "type": "error"
    },
    {
      "inputs": [
        {
          "internalType": "address",
          "name": "account",
          "type": "address"
        }
      ],
      "name": "OwnableUnauthorizedAccount",
      "type": "error"
    },
    {
      "anonymous": false,
      "inputs": [
        {
          "indexed": true,
          "internalType": "address",
          "name": "seller",
          "type": "address"
        },
        {
          "indexed": true,
          "internalType": "address",
          "name": "nftContract",
          "type": "address"
        },
        {
          "indexed": true,
          "internalType": "uint256",
          "name": "tokenId",
          "type": "uint256"
        }
      ],
      "name": "ListingCanceled",
      "type": "event"
    },
    {
      "anonymous": false,
      "inputs": [
        {
          "indexed": true,
          "internalType": "address",
          "name": "seller",
          "type": "address"
        },
        {
          "indexed": true,
          "internalType": "address",
          "name": "nftContract",
          "type": "address"
        },
        {
          "indexed": true,
          "internalType": "uint256",
          "name": "tokenId",
          "type": "uint256"
        },
        {
          "indexed": false,
          "internalType": "uint256",
          "name": "newPrice",
          "type": "uint256"
        }
      ],
      "name": "ListingPriceUpdated",
      "type": "event"
    },
    {
      "anonymous": false,
      "inputs": [
        {
          "indexed": true,
          "internalType": "address",
          "name": "seller",
          "type": "address"
        },
        {
          "indexed": true,
          "internalType": "address",
          "name": "nftContract",
          "type": "address"
        },
        {
          "indexed": true,
          "internalType": "uint256",
          "name": "tokenId",
          "type": "uint256"
        },
        {
          "indexed": false,
          "internalType": "uint256",
          "name": "price",
          "type": "uint256"
        }
      ],
      "name": "NFTListed",
      "type": "event"
    },
    {
      "anonymous": false,
      "inputs": [
        {
          "indexed": true,
          "internalType": "address",
          "name": "buyer",
          "type": "address"
        },
        {
          "indexed": true,
          "internalType": "address",
          "name": "nftContract",
          "type": "address"
        },
        {
          "indexed": true,
          "internalType": "uint256",
          "name": "tokenId",
          "type": "uint256"
        },
        {
          "indexed": false,
          "internalType": "uint256",
          "name": "price",
          "type": "uint256"
        }
      ],
      "name": "NFTSold",
      "type": "event"
    },
    {
      "anonymous": false,
      "inputs": [
        {
          "indexed": true,
          "internalType": "address",
          "name": "previousOwner",
          "type": "address"
        },
        {
          "indexed": true,
          "internalType": "address",
          "name": "newOwner",
          "type": "address"
        }
      ],
      "name": "OwnershipTransferred",
      "type": "event"
    },
    {
      "anonymous": false,
      "inputs": [
        {
          "indexed": false,
          "internalType": "address",
          "name": "account",
          "type": "address"
        }
      ],
      "name": "Paused",
      "type": "event"
    },
    {
      "anonymous": false,
      "inputs": [
        {
          "indexed": false,
          "internalType": "address",
          "name": "account",
          "type": "address"
        }
      ],
      "name": "Unpaused",
      "type": "event"
    },
    {
      "inputs": [
        {
          "internalType": "address",
          "name": "",
          "type": "address"
        },
        {
          "internalType": "uint256",
          "name": "",
          "type": "uint256"
        }
      ],
      "name": "activeListings",
      "outputs": [
        {
          "internalType": "bool",
          "name": "",
          "type": "bool"
        }
      ],
      "stateMutability": "view",
      "type": "function"
    },
    {
      "inputs": [
        {
          "internalType": "uint256",
          "name": "listingId",
          "type": "uint256"
        }
      ],
      "name": "buyNFT",
      "outputs": [],
      "stateMutability": "payable",
      "type": "function"
    },
    {
      "inputs": [
        {
          "internalType": "uint256",
          "name": "listingId",
          "type": "uint256"
        }
      ],
      "name": "cancelListing",
      "outputs": [],
      "stateMutability": "nonpayable",
      "type": "function"
    },
    {
      "inputs": [],
      "name": "getListings",
      "outputs": [
        {
          "components": [
            {
              "internalType": "address",
              "name": "seller",
              "type": "address"
            },
            {
              "internalType": "address",
              "name": "nftContract",
              "type": "address"
            },
            {
              "internalType": "uint256",
              "name": "tokenId",
              "type": "uint256"
            },
            {
              "internalType": "uint256",
              "name": "price",
              "type": "uint256"
            },
            {
              "internalType": "bool",
              "name": "sold",
              "type": "bool"
            }
          ],
          "internalType": "struct Marketplace.Listing[]",
          "name": "",
          "type": "tuple[]"
        }
      ],
      "stateMutability": "view",
      "type": "function"
    },
    {
      "inputs": [
        {
          "internalType": "address",
          "name": "nftContract",
          "type": "address"
        },
        {
          "internalType": "uint256",
          "name": "tokenId",
          "type": "uint256"
        }
      ],
      "name": "isActiveListing",
      "outputs": [
        {
          "internalType": "bool",
          "name": "",
          "type": "bool"
        }
      ],
      "stateMutability": "view",
      "type": "function"
    },
    {
      "inputs": [
        {
          "internalType": "address",
          "name": "nftContract",
          "type": "address"
        },
        {
          "internalType": "uint256",
          "name": "tokenId",
          "type": "uint256"
        },
        {
          "internalType": "uint256",
          "name": "price",
          "type": "uint256"
        }
      ],
      "name": "listNFT",
      "outputs": [],
      "stateMutability": "nonpayable",
      "type": "function"
    },
    {
      "inputs": [
        {
          "internalType": "uint256",
          "name": "",
          "type": "uint256"
        }
      ],
      "name": "listings",
      "outputs": [
        {
          "internalType": "address",
          "name": "seller",
          "type": "address"
        },
        {
          "internalType": "address",
          "name": "nftContract",
          "type": "address"
        },
        {
          "internalType": "uint256",
          "name": "tokenId",
          "type": "uint256"
        },
        {
          "internalType": "uint256",
          "name": "price",
          "type": "uint256"
        },
        {
          "internalType": "bool",
          "name": "sold",
          "type": "bool"
        }
      ],
      "stateMutability": "view",
      "type": "function"
    },
    {
      "inputs": [],
      "name": "owner",
      "outputs": [
        {
          "internalType": "address",
          "name": "",
          "type": "address"
        }
      ],
      "stateMutability": "view",
      "type": "function"
    },
    {
      "inputs": [],
      "name": "pause",
      "outputs": [],
      "stateMutability": "nonpayable",
      "type": "function"
    },
    {
      "inputs": [],
      "name": "paused",
      "outputs": [
        {
          "internalType": "bool",
          "name": "",
          "type": "bool"
        }
      ],
      "stateMutability": "view",
      "type": "function"
    },
    {
      "inputs": [],
      "name": "renounceOwnership",
      "outputs": [],
      "stateMutability": "nonpayable",
      "type": "function"
    },
    {
      "inputs": [
        {
          "internalType": "address",
          "name": "newOwner",
          "type": "address"
        }
      ],
      "name": "transferOwnership",
      "outputs": [],
      "stateMutability": "nonpayable",
      "type": "function"
    },
    {
      "inputs": [],
      "name": "unpause",
      "outputs": [],
      "stateMutability": "nonpayable",
      "type": "function"
    },
    {
      "inputs": [
        {
          "internalType": "uint256",
          "name": "listingId",
          "type": "uint256"
        },
        {
          "internalType": "uint256",
          "name": "newPrice",
          "type": "uint256"
        }
      ],
      "name": "updateListingPrice",
      "outputs": [],
      "stateMutability": "nonpayable",
      "type": "function"
    }
  ],
  "bytecode": "0x608060405234801561001057600080fd5b5033600073ffffffffffffffffffffffffffffffffffffffff168173ffffffffffffffffffffffffffffffffffffffff16036100845760006040517f1e4fbdf700000000000000000000000000000000000000000000000000000000815260040161007b91906101b8565b60405180910390fd5b610093816100b360201b60201c565b5060008060146101000a81548160ff0219169083151502179055506101d3565b60008060009054906101000a900473ffffffffffffffffffffffffffffffffffffffff169050816000806101000a81548173ffffffffffffffffffffffffffffffffffffffff021916908373ffffffffffffffffffffffffffffffffffffffff1602179055508173ffffffffffffffffffffffffffffffffffffffff168173ffffffffffffffffffffffffffffffffffffffff167f8be0079c531659141344cd1fd0a4f28419497f9722a3daafe3b4186f6b6457e060405160405180910390a35050565b600073ffffffffffffffffffffffffffffffffffffffff82169050919050565b60006101a282610177565b9050919050565b6101b281610197565b82525050565b60006020820190506101cd60008301846101a9565b92915050565b61227d806101e26000396000f3fe6080604052600436106100dd5760003560e01c8063ad05f1b41161007f578063de74e57b11610059578063de74e57b14610251578063f1b2d6a314610292578063f2fde38b146102bd578063f4b12508146102e6576100dd565b8063ad05f1b4146101c2578063c4604943146101eb578063d217c7f214610214576100dd565b80635c975abb116100bb5780635c975abb1461013e578063715018a6146101695780638456cb59146101805780638da5cb5b14610197576100dd565b8063305a67a8146100e25780633f4ba83a1461010b57806351ed828814610122575b600080fd5b3480156100ee57600080fd5b50610109600480360381019061010491906118e3565b610323565b005b34801561011757600080fd5b50610120610594565b005b61013c600480360381019061013791906118e3565b6105a6565b005b34801561014a57600080fd5b50610153610b16565b604051610160919061192b565b60405180910390f35b34801561017557600080fd5b5061017e610b2c565b005b34801561018c57600080fd5b50610195610b40565b005b3480156101a357600080fd5b506101ac610b52565b6040516101b99190611987565b60405180910390f35b3480156101ce57600080fd5b506101e960048036038101906101e491906119ce565b610b7b565b005b3480156101f757600080fd5b50610212600480360381019061020d9190611a21565b6110ed565b005b34801561022057600080fd5b5061023b60048036038101906102369190611a61565b611325565b604051610248919061192b565b60405180910390f35b34801561025d57600080fd5b50610278600480360381019061027391906118e3565b61138d565b604051610289959493929190611ab0565b60405180910390f35b34801561029e57600080fd5b506102a7611420565b6040516102b49190611c47565b60405180910390f35b3480156102c957600080fd5b506102e460048036038101906102df9190611c69565b61155a565b005b3480156102f257600080fd5b5061030d60048036038101906103089190611a61565b6115e0565b60405161031a919061192b565b60405180910390f35b61032b61160f565b803373ffffffffffffffffffffffffffffffffffffffff166001828154811061035757610356611c96565b5b906000526020600020906005020160000160009054906101000a900473ffffffffffffffffffffffffffffffffffffffff1673ffffffffffffffffffffffffffffffffffffffff16146103df576040517f08c379a00000000000000000000000000000000000000000000000000000000081526004016103d690611d22565b60405180910390fd5b6000600183815481106103f5576103f4611c96565b5b906000526020600020906005020190508060040160009054906101000a900460ff1615610457576040517f08c379a000000000000000000000000000000000000000000000000000000000815260040161044e90611d8e565b60405180910390fd5b6000600260008360010160009054906101000a900473ffffffffffffffffffffffffffffffffffffffff1673ffffffffffffffffffffffffffffffffffffffff1673ffffffffffffffffffffffffffffffffffffffff16815260200190815260200160002060008360020154815260200190815260200160002060006101000a81548160ff02191690831515021790555080600201548160010160009054906101000a900473ffffffffffffffffffffffffffffffffffffffff1673ffffffffffffffffffffffffffffffffffffffff168260000160009054906101000a900473ffffffffffffffffffffffffffffffffffffffff1673ffffffffffffffffffffffffffffffffffffffff167ffb87149f10f1ffda9c1df55fae0d68fe643c8be0790eec2f859205ed312cd68b60405160405180910390a4505050565b61059c611650565b6105a46116d7565b565b6105ae61160f565b6000600182815481106105c4576105c3611c96565b5b906000526020600020906005020190508060030154341461061a576040517f08c379a000000000000000000000000000000000000000000000000000000000815260040161061190611dfa565b60405180910390fd5b8060040160009054906101000a900460ff161561066c576040517f08c379a000000000000000000000000000000000000000000000000000000000815260040161066390611d8e565b60405180910390fd5b3073ffffffffffffffffffffffffffffffffffffffff168160010160009054906101000a900473ffffffffffffffffffffffffffffffffffffffff1673ffffffffffffffffffffffffffffffffffffffff1663081812fc83600201546040518263ffffffff1660e01b81526004016106e49190611e1a565b602060405180830381865afa158015610701573d6000803e3d6000fd5b505050506040513d601f19601f820116820180604052508101906107259190611e4a565b73ffffffffffffffffffffffffffffffffffffffff16148061080757508060010160009054906101000a900473ffffffffffffffffffffffffffffffffffffffff1673ffffffffffffffffffffffffffffffffffffffff1663e985e9c58260000160009054906101000a900473ffffffffffffffffffffffffffffffffffffffff16306040518363ffffffff1660e01b81526004016107c5929190611e77565b602060405180830381865afa1580156107e2573d6000803e3d6000fd5b505050506040513d601f19601f820116820180604052508101906108069190611ecc565b5b610846576040517f08c379a000000000000000000000000000000000000000000000000000000000815260040161083d90611f6b565b60405180910390fd5b60018160040160006101000a81548160ff0219169083151502179055506000600260008360010160009054906101000a900473ffffffffffffffffffffffffffffffffffffffff1673ffffffffffffffffffffffffffffffffffffffff1673ffffffffffffffffffffffffffffffffffffffff16815260200190815260200160002060008360020154815260200190815260200160002060006101000a81548160ff0219169083151502179055508060010160009054906101000a900473ffffffffffffffffffffffffffffffffffffffff1673ffffffffffffffffffffffffffffffffffffffff166342842e0e8260000160009054906101000a900473ffffffffffffffffffffffffffffffffffffffff163384600201546040518463ffffffff1660e01b815260040161097d93929190611f8b565b600060405180830381600087803b15801561099757600080fd5b505af11580156109ab573d6000803e3d6000fd5b5050505060008160000160009054906101000a900473ffffffffffffffffffffffffffffffffffffffff1673ffffffffffffffffffffffffffffffffffffffff16346040516109f990611ff3565b60006040518083038185875af1925050503d8060008114610a36576040519150601f19603f3d011682016040523d82523d6000602084013e610a3b565b606091505b5050905080610a7f576040517f08c379a0000000000000000000000000000000000000000000000000000000008152600401610a7690612054565b60405180910390fd5b81600201548260010160009054906101000a900473ffffffffffffffffffffffffffffffffffffffff1673ffffffffffffffffffffffffffffffffffffffff163373ffffffffffffffffffffffffffffffffffffffff167ff6ccc0cf89c21c54724ea6ef2ec01da8fe33a1cebe06607e160fd78483eba3028560030154604051610b099190611e1a565b60405180910390a4505050565b60008060149054906101000a900460ff16905090565b610b34611650565b610b3e6000611739565b565b610b48611650565b610b506117fd565b565b60008060009054906101000a900473ffffffffffffffffffffffffffffffffffffffff16905090565b610b8361160f565b60008111610bc6576040517f08c379a0000000000000000000000000000000000000000000000000000000008152600401610bbd906120c0565b60405180910390fd5b8273ffffffffffffffffffffffffffffffffffffffff166301ffc9a76380ac58cd6040518263ffffffff1660e01b8152600401610c039190612154565b602060405180830381865afa158015610c20573d6000803e3d6000fd5b505050506040513d601f19601f82011682018060405250810190610c449190611ecc565b610c83576040517f08c379a0000000000000000000000000000000000000000000000000000000008152600401610c7a906121bb565b60405180910390fd5b3373ffffffffffffffffffffffffffffffffffffffff168373ffffffffffffffffffffffffffffffffffffffff16636352211e846040518263ffffffff1660e01b8152600401610cd39190611e1a565b602060405180830381865afa158015610cf0573d6000803e3d6000fd5b505050506040513d601f19601f82011682018060405250810190610d149190611e4a565b73ffffffffffffffffffffffffffffffffffffffff1614610d6a576040517f08c379a0000000000000000000000000000000000000000000000000000000008152600401610d6190612227565b60405180910390fd5b3073ffffffffffffffffffffffffffffffffffffffff168373ffffffffffffffffffffffffffffffffffffffff1663081812fc846040518263ffffffff1660e01b8152600401610dba9190611e1a565b602060405180830381865afa158015610dd7573d6000803e3d6000fd5b505050506040513d601f19601f82011682018060405250810190610dfb9190611e4a565b73ffffffffffffffffffffffffffffffffffffffff161480610e9557508273ffffffffffffffffffffffffffffffffffffffff1663e985e9c533306040518363ffffffff1660e01b8152600401610e53929190611e77565b602060405180830381865afa158015610e70573d6000803e3d6000fd5b505050506040513d601f19601f82011682018060405250810190610e949190611ecc565b5b610ed4576040517f08c379a0000000000000000000000000000000000000000000000000000000008152600401610ecb90611f6b565b60405180910390fd5b60016040518060a001604052803373ffffffffffffffffffffffffffffffffffffffff1681526020018573ffffffffffffffffffffffffffffffffffffffff16815260200184815260200183815260200160001515815250908060018154018082558091505060019003906000526020600020906005020160009091909190915060008201518160000160006101000a81548173ffffffffffffffffffffffffffffffffffffffff021916908373ffffffffffffffffffffffffffffffffffffffff16021790555060208201518160010160006101000a81548173ffffffffffffffffffffffffffffffffffffffff021916908373ffffffffffffffffffffffffffffffffffffffff160217905550604082015181600201556060820151816003015560808201518160040160006101000a81548160ff02191690831515021790555050506001600260008573ffffffffffffffffffffffffffffffffffffffff1673ffffffffffffffffffffffffffffffffffffffff168152602001908152602001600020600084815260200190815260200160002060006101000a81548160ff021916908315150217905550818373ffffffffffffffffffffffffffffffffffffffff163373ffffffffffffffffffffffffffffffffffffffff167fbeab3a2bb824b124a8a1eb465eec003338d61b414db132d37e9b3a984fdcf010846040516110e09190611e1a565b60405180910390a4505050565b6110f561160f565b813373ffffffffffffffffffffffffffffffffffffffff166001828154811061112157611120611c96565b5b906000526020600020906005020160000160009054906101000a900473ffffffffffffffffffffffffffffffffffffffff1673ffffffffffffffffffffffffffffffffffffffff16146111a9576040517f08c379a00000000000000000000000000000000000000000000000000000000081526004016111a090611d22565b60405180910390fd5b6000600184815481106111bf576111be611c96565b5b906000526020600020906005020190508060040160009054906101000a900460ff1615611221576040517f08c379a000000000000000000000000000000000000000000000000000000000815260040161121890611d8e565b60405180910390fd5b60008311611264576040517f08c379a000000000000000000000000000000000000000000000000000000000815260040161125b906120c0565b60405180910390fd5b82816003018190555080600201548160010160009054906101000a900473ffffffffffffffffffffffffffffffffffffffff1673ffffffffffffffffffffffffffffffffffffffff168260000160009054906101000a900473ffffffffffffffffffffffffffffffffffffffff1673ffffffffffffffffffffffffffffffffffffffff167f1344c6dbfc846cddbfd5097c899a782e28b0d7602d7e61dc8e01a296f53310fd866040516113179190611e1a565b60405180910390a450505050565b6000600260008473ffffffffffffffffffffffffffffffffffffffff1673ffffffffffffffffffffffffffffffffffffffff168152602001908152602001600020600083815260200190815260200160002060009054906101000a900460ff16905092915050565b6001818154811061139d57600080fd5b90600052602060002090600502016000915090508060000160009054906101000a900473ffffffffffffffffffffffffffffffffffffffff16908060010160009054906101000a900473ffffffffffffffffffffffffffffffffffffffff16908060020154908060030154908060040160009054906101000a900460ff16905085565b60606001805480602002602001604051908101604052809291908181526020016000905b8282101561155157838290600052602060002090600502016040518060a00160405290816000820160009054906101000a900473ffffffffffffffffffffffffffffffffffffffff1673ffffffffffffffffffffffffffffffffffffffff1673ffffffffffffffffffffffffffffffffffffffff1681526020016001820160009054906101000a900473ffffffffffffffffffffffffffffffffffffffff1673ffffffffffffffffffffffffffffffffffffffff1673ffffffffffffffffffffffffffffffffffffffff16815260200160028201548152602001600382015481526020016004820160009054906101000a900460ff16151515158152505081526020019060010190611444565b50505050905090565b611562611650565b600073ffffffffffffffffffffffffffffffffffffffff168173ffffffffffffffffffffffffffffffffffffffff16036115d45760006040517f1e4fbdf70000000000000000000000000000000000000000000000000000000081526004016115cb9190611987565b60405180910390fd5b6115dd81611739565b50565b60026020528160005260406000206020528060005260406000206000915091509054906101000a900460ff1681565b611617610b16565b1561164e576040517fd93c066500000000000000000000000000000000000000000000000000000000815260040160405180910390fd5b565b611658611860565b73ffffffffffffffffffffffffffffffffffffffff16611676610b52565b73ffffffffffffffffffffffffffffffffffffffff16146116d557611699611860565b6040517f118cdaa70000000000000000000000000000000000000000000000000000000081526004016116cc9190611987565b60405180910390fd5b565b6116df611868565b60008060146101000a81548160ff0219169083151502179055507f5db9ee0a495bf2e6ff9c91a7834c1ba4fdd244a5e8aa4e537bd38aeae4b073aa611722611860565b60405161172f9190611987565b60405180910390a1565b60008060009054906101000a900473ffffffffffffffffffffffffffffffffffffffff169050816000806101000a81548173ffffffffffffffffffffffffffffffffffffffff021916908373ffffffffffffffffffffffffffffffffffffffff1602179055508173ffffffffffffffffffffffffffffffffffffffff168173ffffffffffffffffffffffffffffffffffffffff167f8be0079c531659141344cd1fd0a4f28419497f9722a3daafe3b4186f6b6457e060405160405180910390a35050565b61180561160f565b6001600060146101000a81548160ff0219169083151502179055507f62e78cea01bee320cd4e420270b5ea74000d11b0c9f74754ebdbfc544b05a258611849611860565b6040516118569190611987565b60405180910390a1565b600033905090565b611870610b16565b6118a6576040517f8dfc202b00000000000000000000000000000000000000000000000000000000815260040160405180910390fd5b565b600080fd5b6000819050919050565b6118c0816118ad565b81146118cb57600080fd5b50565b6000813590506118dd816118b7565b92915050565b6000602082840312156118f9576118f86118a8565b5b6000611907848285016118ce565b91505092915050565b60008115159050919050565b61192581611910565b82525050565b6000602082019050611940600083018461191c565b92915050565b600073ffffffffffffffffffffffffffffffffffffffff82169050919050565b600061197182611946565b9050919050565b61198181611966565b82525050565b600060208201905061199c6000830184611978565b92915050565b6119ab81611966565b81146119b657600080fd5b50565b6000813590506119c8816119a2565b92915050565b6000806000606084860312156119e7576119e66118a8565b5b60006119f5868287016119b9565b9350506020611a06868287016118ce565b9250506040611a17868287016118ce565b9150509250925092565b60008060408385031215611a3857611a376118a8565b5b6000611a46858286016118ce565b9250506020611a57858286016118ce565b9150509250929050565b60008060408385031215611a7857611a776118a8565b5b6000611a86858286016119b9565b9250506020611a97858286016118ce565b9150509250929050565b611aaa816118ad565b82525050565b600060a082019050611ac56000830188611978565b611ad26020830187611978565b611adf6040830186611aa1565b611aec6060830185611aa1565b611af9608083018461191c565b9695505050505050565b600081519050919050565b600082825260208201905092915050565b6000819050602082019050919050565b611b3881611966565b82525050565b611b47816118ad565b82525050565b611b5681611910565b82525050565b60a082016000820151611b726000850182611b2f565b506020820151611b856020850182611b2f565b506040820151611b986040850182611b3e565b506060820151611bab6060850182611b3e565b506080820151611bbe6080850182611b4d565b50505050565b6000611bd08383611b5c565b60a08301905092915050565b6000602082019050919050565b6000611bf482611b03565b611bfe8185611b0e565b9350611c0983611b1f565b8060005b83811015611c3a578151611c218882611bc4565b9750611c2c83611bdc565b925050600181019050611c0d565b5085935050505092915050565b60006020820190508181036000830152611c618184611be9565b905092915050565b600060208284031215611c7f57611c7e6118a8565b5b6000611c8d848285016119b9565b91505092915050565b7f4e487b7100000000000000000000000000000000000000000000000000000000600052603260045260246000fd5b600082825260208201905092915050565b7f596f7520617265206e6f74207468652073656c6c657200000000000000000000600082015250565b6000611d0c601683611cc5565b9150611d1782611cd6565b602082019050919050565b60006020820190508181036000830152611d3b81611cff565b9050919050565b7f4e465420616c726561647920736f6c6400000000000000000000000000000000600082015250565b6000611d78601083611cc5565b9150611d8382611d42565b602082019050919050565b60006020820190508181036000830152611da781611d6b565b9050919050565b7f496e636f72726563742070726963650000000000000000000000000000000000600082015250565b6000611de4600f83611cc5565b9150611def82611dae565b602082019050919050565b60006020820190508181036000830152611e1381611dd7565b9050919050565b6000602082019050611e2f6000830184611aa1565b92915050565b600081519050611e44816119a2565b92915050565b600060208284031215611e6057611e5f6118a8565b5b6000611e6e84828501611e35565b91505092915050565b6000604082019050611e8c6000830185611978565b611e996020830184611978565b9392505050565b611ea981611910565b8114611eb457600080fd5b50565b600081519050611ec681611ea0565b92915050565b600060208284031215611ee257611ee16118a8565b5b6000611ef084828501611eb7565b91505092915050565b7f4d61726b6574706c616365206973206e6f7420617070726f76656420746f207460008201527f72616e736665722074686973204e465400000000000000000000000000000000602082015250565b6000611f55603083611cc5565b9150611f6082611ef9565b604082019050919050565b60006020820190508181036000830152611f8481611f48565b9050919050565b6000606082019050611fa06000830186611978565b611fad6020830185611978565b611fba6040830184611aa1565b949350505050565b600081905092915050565b50565b6000611fdd600083611fc2565b9150611fe882611fcd565b600082019050919050565b6000611ffe82611fd0565b9150819050919050565b7f5472616e7366657220746f2073656c6c6572206661696c656400000000000000600082015250565b600061203e601983611cc5565b915061204982612008565b602082019050919050565b6000602082019050818103600083015261206d81612031565b9050919050565b7f5072696365206d7573742062652067726561746572207468616e203000000000600082015250565b60006120aa601c83611cc5565b91506120b582612074565b602082019050919050565b600060208201905081810360008301526120d98161209d565b9050919050565b6000819050919050565b60007fffffffff0000000000000000000000000000000000000000000000000000000082169050919050565b60008160e01b9050919050565b600061213e612139612134846120e0565b612116565b6120ea565b9050919050565b61214e81612123565b82525050565b60006020820190506121696000830184612145565b92915050565b7f436f6e7472616374206973206e6f742045524337323100000000000000000000600082015250565b60006121a5601683611cc5565b91506121b08261216f565b602082019050919050565b600060208201905081810360008301526121d481612198565b9050919050565b7f596f7520617265206e6f7420746865206f776e65720000000000000000000000600082015250565b6000612211601583611cc5565b915061221c826121db565b602082019050919050565b6000602082019050818103600083015261224081612204565b905091905056fea26469706673582212207604d1d09154899498ba3823310d376045b26ff7f46acbfe0956961dea2e95eb64736f6c634300081b0033",
  "linkReferences": {},
  "deployedLinkReferences": {}
}