{
  "_format": "hh-sol-artifact-1",
  "contractName": "MyNFT",
  "sourceName": "contracts/MyNFT.sol",
  "abi": [
    {
      "inputs": [
        {
          "internalType": "string",
          "name": "name",
          "type": "string"
        },
        {
          "internalType": "string",
          "name": "symbol",
          "type": "string"
        }
      ],
      "stateMutability": "nonpayable",
      "type": "constructor"
    },
    {
      "inputs": [
        {
          "internalType": "address",
          "name": "sender",
          "type": "address"
        },
        {
          "internalType": "uint256",
          "name": "tokenId",
          "type": "uint256"
        },
        {
          "internalType": "address",
          "name": "owner",
          "type": "address"
        }
      ],
      "name": "ERC721IncorrectOwner",
      "type": "error"
    },
    {
      "inputs": [
        {
          "internalType": "address",
          "name": "operator",
          "type": "address"
        },
        {
          "internalType": "uint256",
          "name": "tokenId",
          "type": "uint256"
        }
      ],
      "name": "ERC721InsufficientApproval",
      "type": "error"
    },
    {
      "inputs": [
        {
          "internalType": "address",
          "name": "approver",
          "type": "address"
        }
      ],
      "name": "ERC721InvalidApprover",
      "type": "error"
    },
    {
      "inputs": [
        {
          "internalType": "address",
          "name": "operator",
          "type": "address"
        }
      ],
      "name": "ERC721InvalidOperator",
      "type": "error"
    },
    {
      "inputs": [
        {
          "internalType": "address",
          "name": "owner",
          "type": "address"
        }
      ],
      "name": "ERC721InvalidOwner",
      "type": "error"
    },
    {
      "inputs": [
        {
          "internalType": "address",
          "name": "receiver",
          "type": "address"
        }
      ],
      "name": "ERC721InvalidReceiver",
      "type": "error"
    },
    {
      "inputs": [
        {
          "internalType": "address",
          "name": "sender",
          "type": "address"
        }
      ],
      "name": "ERC721InvalidSender",
      "type": "error"
    },
    {
      "inputs": [
        {
          "internalType": "uint256",
          "name": "tokenId",
          "type": "uint256"
        }
      ],
      "name": "ERC721NonexistentToken",
      "type": "error"
    },
    {
      "anonymous": false,
      "inputs": [
        {
          "indexed": true,
          "internalType": "address",
          "name": "owner",
          "type": "address"
        },
        {
          "indexed": true,
          "internalType": "address",
          "name": "approved",
          "type": "address"
        },
        {
          "indexed": true,
          "internalType": "uint256",
          "name": "tokenId",
          "type": "uint256"
        }
      ],
      "name": "Approval",
      "type": "event"
    },
    {
      "anonymous": false,
      "inputs": [
        {
          "indexed": true,
          "internalType": "address",
          "name": "owner",
          "type": "address"
        },
        {
          "indexed": true,
          "internalType": "address",
          "name": "operator",
          "type": "address"
        },
        {
          "indexed": false,
          "internalType": "bool",
          "name": "approved",
          "type": "bool"
        }
      ],
      "name": "ApprovalForAll",
      "type": "event"
    },
    {
      "anonymous": false,
      "inputs": [
        {
          "indexed": true,
          "internalType": "address",
          "name": "from",
          "type": "address"
        },
        {
          "indexed": true,
          "internalType": "address",
          "name": "to",
          "type": "address"
        },
        {
          "indexed": true,
          "internalType": "uint256",
          "name": "tokenId",
          "type": "uint256"
        }
      ],
      "name": "Transfer",
      "type": "event"
    },
    {
      "inputs": [
        {
          "internalType": "address",
          "name": "to",
          "type": "address"
        },
        {
          "internalType": "uint256",
          "name": "tokenId",
          "type": "uint256"
        }
      ],
      "name": "approve",
      "outputs": [],
      "stateMutability": "nonpayable",
      "type": "function"
    },
    {
      "inputs": [
        {
          "internalType": "address",
          "name": "marketplace",
          "type": "address"
        }
      ],
      "name": "approveMarketplace",
      "outputs": [],
      "stateMutability": "nonpayable",
      "type": "function"
    },
    {
      "inputs": [
        {
          "internalType": "address",
          "name": "owner",
          "type": "address"
        }
      ],
      "name": "balanceOf",
      "outputs": [
        {
          "internalType": "uint256",
          "name": "",
          "type": "uint256"
        }
      ],
      "stateMutability": "view",
      "type": "function"
    },
    {
      "inputs": [
        {
          "internalType": "uint256",
          "name": "tokenId",
          "type": "uint256"
        }
      ],
      "name": "getApproved",
      "outputs": [
        {
          "internalType": "address",
          "name": "",
          "type": "address"
        }
      ],
      "stateMutability": "view",
      "type": "function"
    },
    {
      "inputs": [
        {
          "internalType": "address",
          "name": "owner",
          "type": "address"
        },
        {
          "internalType": "address",
          "name": "operator",
          "type": "address"
        }
      ],
      "name": "isApprovedForAll",
      "outputs": [
        {
          "internalType": "bool",
          "name": "",
          "type": "bool"
        }
      ],
      "stateMutability": "view",
      "type": "function"
    },
    {
      "inputs": [
        {
          "internalType": "address",
          "name": "to",
          "type": "address"
        }
      ],
      "name": "mint",
      "outputs": [],
      "stateMutability": "nonpayable",
      "type": "function"
    },
    {
      "inputs": [],
      "name": "name",
      "outputs": [
        {
          "internalType": "string",
          "name": "",
          "type": "string"
        }
      ],
      "stateMutability": "view",
      "type": "function"
    },
    {
      "inputs": [],
      "name": "nextTokenId",
      "outputs": [
        {
          "internalType": "uint256",
          "name": "",
          "type": "uint256"
        }
      ],
      "stateMutability": "view",
      "type": "function"
    },
    {
      "inputs": [
        {
          "internalType": "uint256",
          "name": "tokenId",
          "type": "uint256"
        }
      ],
      "name": "ownerOf",
      "outputs": [
        {
          "internalType": "address",
          "name": "",
          "type": "address"
        }
      ],
      "stateMutability": "view",
      "type": "function"
    },
    {
      "inputs": [
        {
          "internalType": "address",
          "name": "from",
          "type": "address"
        },
        {
          "internalType": "address",
          "name": "to",
          "type": "address"
        },
        {
          "internalType": "uint256",
          "name": "tokenId",
          "type": "uint256"
        }
      ],
      "name": "safeTransferFrom",
      "outputs": [],
      "stateMutability": "nonpayable",
      "type": "function"
    },
    {
      "inputs": [
        {
          "internalType": "address",
          "name": "from",
          "type": "address"
        },
        {
          "internalType": "address",
          "name": "to",
          "type": "address"
        },
        {
          "internalType": "uint256",
          "name": "tokenId",
          "type": "uint256"
        },
        {
          "internalType": "bytes",
          "name": "data",
          "type": "bytes"
        }
      ],
      "name": "safeTransferFrom",
      "outputs": [],
      "stateMutability": "nonpayable",
      "type": "function"
    },
    {
      "inputs": [
        {
          "internalType": "address",
          "name": "operator",
          "type": "address"
        },
        {
          "internalType": "bool",
          "name": "approved",
          "type": "bool"
        }
      ],
      "name": "setApprovalForAll",
      "outputs": [],
      "stateMutability": "nonpayable",
      "type": "function"
    },
    {
      "inputs": [
        {
          "internalType": "bytes4",
          "name": "interfaceId",
          "type": "bytes4"
        }
      ],
      "name": "supportsInterface",
      "outputs": [
        {
          "internalType": "bool",
          "name": "",
          "type": "bool"
        }
      ],
      "stateMutability": "view",
      "type": "function"
    },
    {
      "inputs": [],
      "name": "symbol",
      "outputs": [
        {
          "internalType": "string",
          "name": "",
          "type": "string"
        }
      ],
      "stateMutability": "view",
      "type": "function"
    },
    {
      "inputs": [
        {
          "internalType": "uint256",
          "name": "tokenId",
          "type": "uint256"
        }
      ],
      "name": "tokenURI",
      "outputs": [
        {
          "internalType": "string",
          "name": "",
          "type": "string"
        }
      ],
      "stateMutability": "view",
      "type": "function"
    },
    {
      "inputs": [
        {
          "internalType": "address",
          "name": "from",
          "type": "address"
        },
        {
          "internalType": "address",
          "name": "to",
          "type": "address"
        },
        {
          "internalType": "uint256",
          "name": "tokenId",
          "type": "uint256"
        }
      ],
      "name": "transferFrom",
      "outputs": [],
      "stateMutability": "nonpayable",
      "type": "function"
    }
  ],
  "bytecode": "0x608060405234801561001057600080fd5b50604051612402380380612402833981810160405281019061003291906101da565b818181600090816100439190610473565b5080600190816100539190610473565b50505060016006819055505050610545565b6000604051905090565b600080fd5b600080fd5b600080fd5b600080fd5b6000601f19601f8301169050919050565b7f4e487b7100000000000000000000000000000000000000000000000000000000600052604160045260246000fd5b6100cc82610083565b810181811067ffffffffffffffff821117156100eb576100ea610094565b5b80604052505050565b60006100fe610065565b905061010a82826100c3565b919050565b600067ffffffffffffffff82111561012a57610129610094565b5b61013382610083565b9050602081019050919050565b60005b8381101561015e578082015181840152602081019050610143565b60008484015250505050565b600061017d6101788461010f565b6100f4565b9050828152602081018484840111156101995761019861007e565b5b6101a4848285610140565b509392505050565b600082601f8301126101c1576101c0610079565b5b81516101d184826020860161016a565b91505092915050565b600080604083850312156101f1576101f061006f565b5b600083015167ffffffffffffffff81111561020f5761020e610074565b5b61021b858286016101ac565b925050602083015167ffffffffffffffff81111561023c5761023b610074565b5b610248858286016101ac565b9150509250929050565b600081519050919050565b7f4e487b7100000000000000000000000000000000000000000000000000000000600052602260045260246000fd5b600060028204905060018216806102a457607f821691505b6020821081036102b7576102b661025d565b5b50919050565b60008190508160005260206000209050919050565b60006020601f8301049050919050565b600082821b905092915050565b60006008830261031f7fffffffffffffffffffffffffffffffffffffffffffffffffffffffffffffffff826102e2565b61032986836102e2565b95508019841693508086168417925050509392505050565b6000819050919050565b6000819050919050565b600061037061036b61036684610341565b61034b565b610341565b9050919050565b6000819050919050565b61038a83610355565b61039e61039682610377565b8484546102ef565b825550505050565b600090565b6103b36103a6565b6103be818484610381565b505050565b5b818110156103e2576103d76000826103ab565b6001810190506103c4565b5050565b601f821115610427576103f8816102bd565b610401846102d2565b81016020851015610410578190505b61042461041c856102d2565b8301826103c3565b50505b505050565b600082821c905092915050565b600061044a6000198460080261042c565b1980831691505092915050565b60006104638383610439565b9150826002028217905092915050565b61047c82610252565b67ffffffffffffffff81111561049557610494610094565b5b61049f825461028c565b6104aa8282856103e6565b600060209050601f8311600181146104dd57600084156104cb578287015190505b6104d58582610457565b86555061053d565b601f1984166104eb866102bd565b60005b82811015610513578489015182556001820191506020850194506020810190506104ee565b86831015610530578489015161052c601f891682610439565b8355505b6001600288020188555050505b505050505050565b611eae806105546000396000f3fe608060405234801561001057600080fd5b50600436106101005760003560e01c80636a62784211610097578063a22cb46511610066578063a22cb465146102ab578063b88d4fde146102c7578063c87b56dd146102e3578063e985e9c51461031357610100565b80636a6278421461022357806370a082311461023f57806375794a3c1461026f57806395d89b411461028d57610100565b806323b872dd116100d357806323b872dd1461019f57806342842e0e146101bb5780634f83489b146101d75780636352211e146101f357610100565b806301ffc9a71461010557806306fdde0314610135578063081812fc14610153578063095ea7b314610183575b600080fd5b61011f600480360381019061011a9190611681565b610343565b60405161012c91906116c9565b60405180910390f35b61013d610425565b60405161014a9190611774565b60405180910390f35b61016d600480360381019061016891906117cc565b6104b7565b60405161017a919061183a565b60405180910390f35b61019d60048036038101906101989190611881565b6104d3565b005b6101b960048036038101906101b491906118c1565b6104e9565b005b6101d560048036038101906101d091906118c1565b6105eb565b005b6101f160048036038101906101ec9190611914565b61060b565b005b61020d600480360381019061020891906117cc565b610619565b60405161021a919061183a565b60405180910390f35b61023d60048036038101906102389190611914565b61062b565b005b61025960048036038101906102549190611914565b610652565b6040516102669190611950565b60405180910390f35b61027761070c565b6040516102849190611950565b60405180910390f35b610295610712565b6040516102a29190611774565b60405180910390f35b6102c560048036038101906102c09190611997565b6107a4565b005b6102e160048036038101906102dc9190611b0c565b6107ba565b005b6102fd60048036038101906102f891906117cc565b6107d7565b60405161030a9190611774565b60405180910390f35b61032d60048036038101906103289190611b8f565b610840565b60405161033a91906116c9565b60405180910390f35b60007f80ac58cd000000000000000000000000000000000000000000000000000000007bffffffffffffffffffffffffffffffffffffffffffffffffffffffff1916827bffffffffffffffffffffffffffffffffffffffffffffffffffffffff1916148061040e57507f5b5e139f000000000000000000000000000000000000000000000000000000007bffffffffffffffffffffffffffffffffffffffffffffffffffffffff1916827bffffffffffffffffffffffffffffffffffffffffffffffffffffffff1916145b8061041e575061041d826108d4565b5b9050919050565b60606000805461043490611bfe565b80601f016020809104026020016040519081016040528092919081815260200182805461046090611bfe565b80156104ad5780601f10610482576101008083540402835291602001916104ad565b820191906000526020600020905b81548152906001019060200180831161049057829003601f168201915b5050505050905090565b60006104c28261093e565b506104cc826109c6565b9050919050565b6104e582826104e0610a03565b610a0b565b5050565b600073ffffffffffffffffffffffffffffffffffffffff168273ffffffffffffffffffffffffffffffffffffffff160361055b5760006040517f64a0ae92000000000000000000000000000000000000000000000000000000008152600401610552919061183a565b60405180910390fd5b600061056f838361056a610a03565b610a1d565b90508373ffffffffffffffffffffffffffffffffffffffff168173ffffffffffffffffffffffffffffffffffffffff16146105e5578382826040517f64283d7b0000000000000000000000000000000000000000000000000000000081526004016105dc93929190611c2f565b60405180910390fd5b50505050565b610606838383604051806020016040528060008152506107ba565b505050565b6106168160016107a4565b50565b60006106248261093e565b9050919050565b61063781600654610c37565b6006600081548092919061064a90611c95565b919050555050565b60008073ffffffffffffffffffffffffffffffffffffffff168273ffffffffffffffffffffffffffffffffffffffff16036106c55760006040517f89c62b640000000000000000000000000000000000000000000000000000000081526004016106bc919061183a565b60405180910390fd5b600360008373ffffffffffffffffffffffffffffffffffffffff1673ffffffffffffffffffffffffffffffffffffffff168152602001908152602001600020549050919050565b60065481565b60606001805461072190611bfe565b80601f016020809104026020016040519081016040528092919081815260200182805461074d90611bfe565b801561079a5780601f1061076f5761010080835404028352916020019161079a565b820191906000526020600020905b81548152906001019060200180831161077d57829003601f168201915b5050505050905090565b6107b66107af610a03565b8383610d30565b5050565b6107c58484846104e9565b6107d184848484610e9f565b50505050565b60606107e28261093e565b5060006107ed611056565b9050600081511161080d5760405180602001604052806000815250610838565b806108178461106d565b604051602001610828929190611d19565b6040516020818303038152906040525b915050919050565b6000600560008473ffffffffffffffffffffffffffffffffffffffff1673ffffffffffffffffffffffffffffffffffffffff16815260200190815260200160002060008373ffffffffffffffffffffffffffffffffffffffff1673ffffffffffffffffffffffffffffffffffffffff16815260200190815260200160002060009054906101000a900460ff16905092915050565b60007f01ffc9a7000000000000000000000000000000000000000000000000000000007bffffffffffffffffffffffffffffffffffffffffffffffffffffffff1916827bffffffffffffffffffffffffffffffffffffffffffffffffffffffff1916149050919050565b60008061094a8361113b565b9050600073ffffffffffffffffffffffffffffffffffffffff168173ffffffffffffffffffffffffffffffffffffffff16036109bd57826040517f7e2732890000000000000000000000000000000000000000000000000000000081526004016109b49190611950565b60405180910390fd5b80915050919050565b60006004600083815260200190815260200160002060009054906101000a900473ffffffffffffffffffffffffffffffffffffffff169050919050565b600033905090565b610a188383836001611178565b505050565b600080610a298461113b565b9050600073ffffffffffffffffffffffffffffffffffffffff168373ffffffffffffffffffffffffffffffffffffffff1614610a6b57610a6a81848661133d565b5b600073ffffffffffffffffffffffffffffffffffffffff168173ffffffffffffffffffffffffffffffffffffffff1614610afc57610aad600085600080611178565b6001600360008373ffffffffffffffffffffffffffffffffffffffff1673ffffffffffffffffffffffffffffffffffffffff168152602001908152602001600020600082825403925050819055505b600073ffffffffffffffffffffffffffffffffffffffff168573ffffffffffffffffffffffffffffffffffffffff1614610b7f576001600360008773ffffffffffffffffffffffffffffffffffffffff1673ffffffffffffffffffffffffffffffffffffffff168152602001908152602001600020600082825401925050819055505b846002600086815260200190815260200160002060006101000a81548173ffffffffffffffffffffffffffffffffffffffff021916908373ffffffffffffffffffffffffffffffffffffffff160217905550838573ffffffffffffffffffffffffffffffffffffffff168273ffffffffffffffffffffffffffffffffffffffff167fddf252ad1be2c89b69c2b068fc378daa952ba7f163c4a11628f55a4df523b3ef60405160405180910390a4809150509392505050565b600073ffffffffffffffffffffffffffffffffffffffff168273ffffffffffffffffffffffffffffffffffffffff1603610ca95760006040517f64a0ae92000000000000000000000000000000000000000000000000000000008152600401610ca0919061183a565b60405180910390fd5b6000610cb783836000610a1d565b9050600073ffffffffffffffffffffffffffffffffffffffff168173ffffffffffffffffffffffffffffffffffffffff1614610d2b5760006040517f73c6ac6e000000000000000000000000000000000000000000000000000000008152600401610d22919061183a565b60405180910390fd5b505050565b600073ffffffffffffffffffffffffffffffffffffffff168273ffffffffffffffffffffffffffffffffffffffff1603610da157816040517f5b08ba18000000000000000000000000000000000000000000000000000000008152600401610d98919061183a565b60405180910390fd5b80600560008573ffffffffffffffffffffffffffffffffffffffff1673ffffffffffffffffffffffffffffffffffffffff16815260200190815260200160002060008473ffffffffffffffffffffffffffffffffffffffff1673ffffffffffffffffffffffffffffffffffffffff16815260200190815260200160002060006101000a81548160ff0219169083151502179055508173ffffffffffffffffffffffffffffffffffffffff168373ffffffffffffffffffffffffffffffffffffffff167f17307eab39ab6107e8899845ad3d59bd9653f200f220920489ca2b5937696c3183604051610e9291906116c9565b60405180910390a3505050565b60008373ffffffffffffffffffffffffffffffffffffffff163b1115611050578273ffffffffffffffffffffffffffffffffffffffff1663150b7a02610ee3610a03565b8685856040518563ffffffff1660e01b8152600401610f059493929190611d92565b6020604051808303816000875af1925050508015610f4157506040513d601f19601f82011682018060405250810190610f3e9190611df3565b60015b610fc5573d8060008114610f71576040519150601f19603f3d011682016040523d82523d6000602084013e610f76565b606091505b506000815103610fbd57836040517f64a0ae92000000000000000000000000000000000000000000000000000000008152600401610fb4919061183a565b60405180910390fd5b805181602001fd5b63150b7a0260e01b7bffffffffffffffffffffffffffffffffffffffffffffffffffffffff1916817bffffffffffffffffffffffffffffffffffffffffffffffffffffffff19161461104e57836040517f64a0ae92000000000000000000000000000000000000000000000000000000008152600401611045919061183a565b60405180910390fd5b505b50505050565b606060405180602001604052806000815250905090565b60606000600161107c84611401565b01905060008167ffffffffffffffff81111561109b5761109a6119e1565b5b6040519080825280601f01601f1916602001820160405280156110cd5781602001600182028036833780820191505090505b509050600082602001820190505b600115611130578080600190039150507f3031323334353637383961626364656600000000000000000000000000000000600a86061a8153600a858161112457611123611e20565b5b049450600085036110db575b819350505050919050565b60006002600083815260200190815260200160002060009054906101000a900473ffffffffffffffffffffffffffffffffffffffff169050919050565b80806111b15750600073ffffffffffffffffffffffffffffffffffffffff168273ffffffffffffffffffffffffffffffffffffffff1614155b156112e55760006111c18461093e565b9050600073ffffffffffffffffffffffffffffffffffffffff168373ffffffffffffffffffffffffffffffffffffffff161415801561122c57508273ffffffffffffffffffffffffffffffffffffffff168173ffffffffffffffffffffffffffffffffffffffff1614155b801561123f575061123d8184610840565b155b1561128157826040517fa9fbf51f000000000000000000000000000000000000000000000000000000008152600401611278919061183a565b60405180910390fd5b81156112e357838573ffffffffffffffffffffffffffffffffffffffff168273ffffffffffffffffffffffffffffffffffffffff167f8c5be1e5ebec7d5bd14f71427d1e84f3dd0314c0f7b2291e5b200ac8c7c3b92560405160405180910390a45b505b836004600085815260200190815260200160002060006101000a81548173ffffffffffffffffffffffffffffffffffffffff021916908373ffffffffffffffffffffffffffffffffffffffff16021790555050505050565b611348838383611554565b6113fc57600073ffffffffffffffffffffffffffffffffffffffff168373ffffffffffffffffffffffffffffffffffffffff16036113bd57806040517f7e2732890000000000000000000000000000000000000000000000000000000081526004016113b49190611950565b60405180910390fd5b81816040517f177e802f0000000000000000000000000000000000000000000000000000000081526004016113f3929190611e4f565b60405180910390fd5b505050565b600080600090507a184f03e93ff9f4daa797ed6e38ed64bf6a1f010000000000000000831061145f577a184f03e93ff9f4daa797ed6e38ed64bf6a1f010000000000000000838161145557611454611e20565b5b0492506040810190505b6d04ee2d6d415b85acef8100000000831061149c576d04ee2d6d415b85acef8100000000838161149257611491611e20565b5b0492506020810190505b662386f26fc1000083106114cb57662386f26fc1000083816114c1576114c0611e20565b5b0492506010810190505b6305f5e10083106114f4576305f5e10083816114ea576114e9611e20565b5b0492506008810190505b612710831061151957612710838161150f5761150e611e20565b5b0492506004810190505b6064831061153c576064838161153257611531611e20565b5b0492506002810190505b600a831061154b576001810190505b80915050919050565b60008073ffffffffffffffffffffffffffffffffffffffff168373ffffffffffffffffffffffffffffffffffffffff161415801561160c57508273ffffffffffffffffffffffffffffffffffffffff168473ffffffffffffffffffffffffffffffffffffffff1614806115cd57506115cc8484610840565b5b8061160b57508273ffffffffffffffffffffffffffffffffffffffff166115f3836109c6565b73ffffffffffffffffffffffffffffffffffffffff16145b5b90509392505050565b6000604051905090565b600080fd5b600080fd5b60007fffffffff0000000000000000000000000000000000000000000000000000000082169050919050565b61165e81611629565b811461166957600080fd5b50565b60008135905061167b81611655565b92915050565b6000602082840312156116975761169661161f565b5b60006116a58482850161166c565b91505092915050565b60008115159050919050565b6116c3816116ae565b82525050565b60006020820190506116de60008301846116ba565b92915050565b600081519050919050565b600082825260208201905092915050565b60005b8381101561171e578082015181840152602081019050611703565b60008484015250505050565b6000601f19601f8301169050919050565b6000611746826116e4565b61175081856116ef565b9350611760818560208601611700565b6117698161172a565b840191505092915050565b6000602082019050818103600083015261178e818461173b565b905092915050565b6000819050919050565b6117a981611796565b81146117b457600080fd5b50565b6000813590506117c6816117a0565b92915050565b6000602082840312156117e2576117e161161f565b5b60006117f0848285016117b7565b91505092915050565b600073ffffffffffffffffffffffffffffffffffffffff82169050919050565b6000611824826117f9565b9050919050565b61183481611819565b82525050565b600060208201905061184f600083018461182b565b92915050565b61185e81611819565b811461186957600080fd5b50565b60008135905061187b81611855565b92915050565b600080604083850312156118985761189761161f565b5b60006118a68582860161186c565b92505060206118b7858286016117b7565b9150509250929050565b6000806000606084860312156118da576118d961161f565b5b60006118e88682870161186c565b93505060206118f98682870161186c565b925050604061190a868287016117b7565b9150509250925092565b60006020828403121561192a5761192961161f565b5b60006119388482850161186c565b91505092915050565b61194a81611796565b82525050565b60006020820190506119656000830184611941565b92915050565b611974816116ae565b811461197f57600080fd5b50565b6000813590506119918161196b565b92915050565b600080604083850312156119ae576119ad61161f565b5b60006119bc8582860161186c565b92505060206119cd85828601611982565b9150509250929050565b600080fd5b600080fd5b7f4e487b7100000000000000000000000000000000000000000000000000000000600052604160045260246000fd5b611a198261172a565b810181811067ffffffffffffffff82111715611a3857611a376119e1565b5b80604052505050565b6000611a4b611615565b9050611a578282611a10565b919050565b600067ffffffffffffffff821115611a7757611a766119e1565b5b611a808261172a565b9050602081019050919050565b82818337600083830152505050565b6000611aaf611aaa84611a5c565b611a41565b905082815260208101848484011115611acb57611aca6119dc565b5b611ad6848285611a8d565b509392505050565b600082601f830112611af357611af26119d7565b5b8135611b03848260208601611a9c565b91505092915050565b60008060008060808587031215611b2657611b2561161f565b5b6000611b348782880161186c565b9450506020611b458782880161186c565b9350506040611b56878288016117b7565b925050606085013567ffffffffffffffff811115611b7757611b76611624565b5b611b8387828801611ade565b91505092959194509250565b60008060408385031215611ba657611ba561161f565b5b6000611bb48582860161186c565b9250506020611bc58582860161186c565b9150509250929050565b7f4e487b7100000000000000000000000000000000000000000000000000000000600052602260045260246000fd5b60006002820490506001821680611c1657607f821691505b602082108103611c2957611c28611bcf565b5b50919050565b6000606082019050611c44600083018661182b565b611c516020830185611941565b611c5e604083018461182b565b949350505050565b7f4e487b7100000000000000000000000000000000000000000000000000000000600052601160045260246000fd5b6000611ca082611796565b91507fffffffffffffffffffffffffffffffffffffffffffffffffffffffffffffffff8203611cd257611cd1611c66565b5b600182019050919050565b600081905092915050565b6000611cf3826116e4565b611cfd8185611cdd565b9350611d0d818560208601611700565b80840191505092915050565b6000611d258285611ce8565b9150611d318284611ce8565b91508190509392505050565b600081519050919050565b600082825260208201905092915050565b6000611d6482611d3d565b611d6e8185611d48565b9350611d7e818560208601611700565b611d878161172a565b840191505092915050565b6000608082019050611da7600083018761182b565b611db4602083018661182b565b611dc16040830185611941565b8181036060830152611dd38184611d59565b905095945050505050565b600081519050611ded81611655565b92915050565b600060208284031215611e0957611e0861161f565b5b6000611e1784828501611dde565b91505092915050565b7f4e487b7100000000000000000000000000000000000000000000000000000000600052601260045260246000fd5b6000604082019050611e64600083018561182b565b611e716020830184611941565b939250505056fea2646970667358221220eb20fa80abae9d01cd400f55c031a658623769f09337ee3ab10fa1e60a52c7e764736f6c634300081b0033",
  "linkReferences": {},
  "deployedLinkReferences": {}
}